{
  "_format": "hh-sol-artifact-1",
  "contractName": "Transactions",
  "sourceName": "contracts/Tansactions.sol",
  "abi": [
    {
      "anonymous": false,
      "inputs": [
        {
          "indexed": false,
          "internalType": "address",
          "name": "sender",
          "type": "address"
        },
        {
          "indexed": false,
          "internalType": "address",
          "name": "receiver",
          "type": "address"
        },
        {
          "indexed": false,
          "internalType": "uint256",
          "name": "amount",
          "type": "uint256"
        },
        {
          "indexed": false,
          "internalType": "string",
          "name": "message",
          "type": "string"
        },
        {
          "indexed": false,
          "internalType": "uint256",
          "name": "timestamp",
          "type": "uint256"
        },
        {
          "indexed": false,
          "internalType": "string",
          "name": "keyword",
          "type": "string"
        }
      ],
      "name": "Transfer",
      "type": "event"
    },
    {
      "inputs": [
        {
          "internalType": "address",
          "name": "receiver",
          "type": "address"
        },
        {
          "internalType": "uint256",
          "name": "amount",
          "type": "uint256"
        },
        {
          "internalType": "string",
          "name": "message",
          "type": "string"
        },
        {
          "internalType": "string",
          "name": "keyword",
          "type": "string"
        }
      ],
      "name": "publicTransaction",
      "outputs": [],
      "stateMutability": "payable",
      "type": "function"
    }
  ],
  "bytecode": "0x6080604052348015600f57600080fd5b5061054a8061001f6000396000f3fe60806040526004361061001e5760003560e01c806354c2898c14610023575b600080fd5b61003d600480360381019061003891906102fd565b61003f565b005b823414610081576040517f08c379a0000000000000000000000000000000000000000000000000000000008152600401610078906103f9565b60405180910390fd5b8373ffffffffffffffffffffffffffffffffffffffff166108fc849081150290604051600060405180830381858888f193505050501580156100c7573d6000803e3d6000fd5b507f416cfa4330a4565f45c2fd2dd4826a83a37443aba2ce6f79477c7355afac35fa338585854286604051610101969594939291906104a5565b60405180910390a150505050565b6000604051905090565b600080fd5b600080fd5b600073ffffffffffffffffffffffffffffffffffffffff82169050919050565b600061014e82610123565b9050919050565b61015e81610143565b811461016957600080fd5b50565b60008135905061017b81610155565b92915050565b6000819050919050565b61019481610181565b811461019f57600080fd5b50565b6000813590506101b18161018b565b92915050565b600080fd5b600080fd5b6000601f19601f8301169050919050565b7f4e487b7100000000000000000000000000000000000000000000000000000000600052604160045260246000fd5b61020a826101c1565b810181811067ffffffffffffffff82111715610229576102286101d2565b5b80604052505050565b600061023c61010f565b90506102488282610201565b919050565b600067ffffffffffffffff821115610268576102676101d2565b5b610271826101c1565b9050602081019050919050565b82818337600083830152505050565b60006102a061029b8461024d565b610232565b9050828152602081018484840111156102bc576102bb6101bc565b5b6102c784828561027e565b509392505050565b600082601f8301126102e4576102e36101b7565b5b81356102f484826020860161028d565b91505092915050565b6000806000806080858703121561031757610316610119565b5b60006103258782880161016c565b9450506020610336878288016101a2565b935050604085013567ffffffffffffffff8111156103575761035661011e565b5b610363878288016102cf565b925050606085013567ffffffffffffffff8111156103845761038361011e565b5b610390878288016102cf565b91505092959194509250565b600082825260208201905092915050565b7f416d6f756e7420646f6573206e6f74206d617463682073656e74204574686572600082015250565b60006103e360208361039c565b91506103ee826103ad565b602082019050919050565b60006020820190508181036000830152610412816103d6565b9050919050565b61042281610143565b82525050565b61043181610181565b82525050565b600081519050919050565b60005b83811015610460578082015181840152602081019050610445565b60008484015250505050565b600061047782610437565b610481818561039c565b9350610491818560208601610442565b61049a816101c1565b840191505092915050565b600060c0820190506104ba6000830189610419565b6104c76020830188610419565b6104d46040830187610428565b81810360608301526104e6818661046c565b90506104f56080830185610428565b81810360a0830152610507818461046c565b905097965050505050505056fea264697066735822122075f9b4b750de32cbc5eafdefcd726bd8a06c8f46a8aef0df0dabd31d97f785e264736f6c634300081c0033",
  "linkReferences": {},
  "deployedLinkReferences": {}
}